{
  "contractName": "Lock",
  "abi": [
    {
      "inputs": [
        {
          "internalType": "uint256",
          "name": "_unlockTime",
          "type": "uint256"
        }
      ],
      "stateMutability": "payable",
      "type": "constructor"
    },
    {
      "anonymous": false,
      "inputs": [
        {
          "indexed": false,
          "internalType": "uint256",
          "name": "amount",
          "type": "uint256"
        },
        {
          "indexed": false,
          "internalType": "uint256",
          "name": "when",
          "type": "uint256"
        }
      ],
      "name": "Withdrawal",
      "type": "event"
    },
    {
      "inputs": [],
      "name": "owner",
      "outputs": [
        {
          "internalType": "address payable",
          "name": "",
          "type": "address"
        }
      ],
      "stateMutability": "view",
      "type": "function"
    },
    {
      "inputs": [],
      "name": "unlockTime",
      "outputs": [
        {
          "internalType": "uint256",
          "name": "",
          "type": "uint256"
        }
      ],
      "stateMutability": "view",
      "type": "function"
    },
    {
      "inputs": [],
      "name": "withdraw",
      "outputs": [],
      "stateMutability": "nonpayable",
      "type": "function"
    }
  ],
  "bytecode": "0x60806040526040516102e93803806102e98339810160408190526100229161009b565b8042106100815760405162461bcd60e51b815260206004820152602360248201527f556e6c6f636b2074696d652073686f756c6420626520696e207468652066757460448201526275726560e81b606482015260840160405180910390fd5b600055600180546001600160a01b031916331790556100b4565b6000602082840312156100ad57600080fd5b5051919050565b610226806100c36000396000f3fe608060405234801561001057600080fd5b50600436106100415760003560e01c8063251c1aa3146100465780633ccfd60b146100625780638da5cb5b1461006c575b600080fd5b61004f60005481565b6040519081526020015b60405180910390f35b61006a6100b1565b005b60015461008c9073ffffffffffffffffffffffffffffffffffffffff1681565b60405173ffffffffffffffffffffffffffffffffffffffff9091168152602001610059565b6000544210156101085760405162461bcd60e51b815260206004820152601660248201527f596f752063616e2774207769746864726177207965740000000000000000000060448201526064015b60405180910390fd5b60015473ffffffffffffffffffffffffffffffffffffffff16331461016f5760405162461bcd60e51b815260206004820152601460248201527f596f75206172656e277420746865206f776e657200000000000000000000000060448201526064016100ff565b604080514781524260208201527fbf2ed60bd5b5965d685680c01195c9514e4382e28e3a5a2d2d5244bf59411b93910160405180910390a160015460405173ffffffffffffffffffffffffffffffffffffffff909116904780156108fc02916000818181858888f193505050501580156101ed573d6000803e3d6000fd5b5056fea264697066735822122085d4496c701a1c1e46f9e21e989c6c25737ce5a2f3ed28a985b8a075e75da78664736f6c634300080d0033",
  "immutableReferences": {},
  "source": "// SPDX-License-Identifier: UNLICENSED\npragma solidity ^0.8.13;\n\n// Uncomment this line to use console.log\n// import \"hardhat/console.sol\";\n\ncontract Lock {\n    uint public unlockTime;\n    address payable public owner;\n\n    event Withdrawal(uint amount, uint when);\n\n    constructor(uint _unlockTime) payable {\n        require(\n            block.timestamp < _unlockTime,\n            \"Unlock time should be in the future\"\n        );\n\n        unlockTime = _unlockTime;\n        owner = payable(msg.sender);\n    }\n\n    function withdraw() public {\n        // Uncomment this line, and the import of \"hardhat/console.sol\", to print a log in your terminal\n        // console.log(\"Unlock time is %o and block timestamp is %o\", unlockTime, block.timestamp);\n\n        require(block.timestamp >= unlockTime, \"You can't withdraw yet\");\n        require(msg.sender == owner, \"You aren't the owner\");\n\n        emit Withdrawal(address(this).balance, block.timestamp);\n\n        owner.transfer(address(this).balance);\n    }\n}\n",
  "sourcePath": "C:\\Users\\omard\\Desktop\\final working\\2-4-2025\\2-4-2025\\OLD 16_3_2023 2\\OLD 16_3_2023 1\\OLD 16_3_2023\\OLD 15_3_2023\\blockchain\\contracts\\Lock.sol",
  "compiler": {
    "name": "solc",
    "version": "0.8.13+commit.abaa5c0e.Emscripten.clang"
  },
  "schemaVersion": "3.4.16",
  "updatedAt": "2025-07-10T08:14:36.415Z",
  "devdoc": {
    "kind": "dev",
    "methods": {},
    "version": 1
  },
  "userdoc": {
    "kind": "user",
    "methods": {},
    "version": 1
  }
}