{
  "contractName": "VotingSystem",
  "abi": [
    {
      "anonymous": false,
      "inputs": [
        {
          "indexed": false,
          "internalType": "string",
          "name": "message",
          "type": "string"
        },
        {
          "indexed": false,
          "internalType": "uint256",
          "name": "blocId",
          "type": "uint256"
        }
      ],
      "name": "CollegeBlocAdded",
      "type": "event"
    },
    {
      "anonymous": false,
      "inputs": [
        {
          "indexed": false,
          "internalType": "string",
          "name": "message",
          "type": "string"
        },
        {
          "indexed": false,
          "internalType": "uint256",
          "name": "blocId",
          "type": "uint256"
        }
      ],
      "name": "UniversityBlocAdded",
      "type": "event"
    },
    {
      "anonymous": false,
      "inputs": [
        {
          "indexed": false,
          "internalType": "address",
          "name": "voter",
          "type": "address"
        },
        {
          "indexed": false,
          "internalType": "string",
          "name": "voteHash",
          "type": "string"
        },
        {
          "indexed": false,
          "internalType": "string",
          "name": "voteType",
          "type": "string"
        }
      ],
      "name": "VoteCast",
      "type": "event"
    },
    {
      "inputs": [
        {
          "internalType": "uint256",
          "name": "",
          "type": "uint256"
        }
      ],
      "name": "collegeBlocs",
      "outputs": [
        {
          "internalType": "uint256",
          "name": "id",
          "type": "uint256"
        },
        {
          "internalType": "uint256",
          "name": "voteCount",
          "type": "uint256"
        }
      ],
      "stateMutability": "view",
      "type": "function",
      "constant": true
    },
    {
      "inputs": [
        {
          "internalType": "bytes32",
          "name": "",
          "type": "bytes32"
        }
      ],
      "name": "emailHasVoted",
      "outputs": [
        {
          "internalType": "bool",
          "name": "",
          "type": "bool"
        }
      ],
      "stateMutability": "view",
      "type": "function",
      "constant": true
    },
    {
      "inputs": [
        {
          "internalType": "uint256",
          "name": "",
          "type": "uint256"
        }
      ],
      "name": "universityBlocs",
      "outputs": [
        {
          "internalType": "uint256",
          "name": "id",
          "type": "uint256"
        },
        {
          "internalType": "uint256",
          "name": "voteCount",
          "type": "uint256"
        }
      ],
      "stateMutability": "view",
      "type": "function",
      "constant": true
    },
    {
      "inputs": [
        {
          "internalType": "string",
          "name": "",
          "type": "string"
        }
      ],
      "name": "voteHashes",
      "outputs": [
        {
          "internalType": "bool",
          "name": "",
          "type": "bool"
        }
      ],
      "stateMutability": "view",
      "type": "function",
      "constant": true
    },
    {
      "inputs": [
        {
          "internalType": "address",
          "name": "",
          "type": "address"
        }
      ],
      "name": "voters",
      "outputs": [
        {
          "internalType": "bool",
          "name": "hasVotedUniversity",
          "type": "bool"
        },
        {
          "internalType": "bool",
          "name": "hasVotedCollege",
          "type": "bool"
        },
        {
          "internalType": "string",
          "name": "universityVoteHash",
          "type": "string"
        },
        {
          "internalType": "string",
          "name": "collegeVoteHash",
          "type": "string"
        }
      ],
      "stateMutability": "view",
      "type": "function",
      "constant": true
    },
    {
      "inputs": [
        {
          "internalType": "uint256",
          "name": "blocId",
          "type": "uint256"
        }
      ],
      "name": "addUniversityBloc",
      "outputs": [],
      "stateMutability": "nonpayable",
      "type": "function"
    },
    {
      "inputs": [
        {
          "internalType": "uint256",
          "name": "blocId",
          "type": "uint256"
        }
      ],
      "name": "addCollegeBloc",
      "outputs": [],
      "stateMutability": "nonpayable",
      "type": "function"
    },
    {
      "inputs": [
        {
          "internalType": "bytes32",
          "name": "emailHash",
          "type": "bytes32"
        },
        {
          "internalType": "string",
          "name": "voteHash",
          "type": "string"
        },
        {
          "internalType": "uint256",
          "name": "blocId",
          "type": "uint256"
        }
      ],
      "name": "vote",
      "outputs": [],
      "stateMutability": "nonpayable",
      "type": "function"
    },
    {
      "inputs": [
        {
          "internalType": "string",
          "name": "voteHash",
          "type": "string"
        },
        {
          "internalType": "uint8",
          "name": "blocId",
          "type": "uint8"
        }
      ],
      "name": "voteCollegeBloc",
      "outputs": [],
      "stateMutability": "nonpayable",
      "type": "function"
    },
    {
      "inputs": [
        {
          "internalType": "uint256",
          "name": "blocId",
          "type": "uint256"
        }
      ],
      "name": "getUniversityBloc",
      "outputs": [
        {
          "internalType": "uint256",
          "name": "",
          "type": "uint256"
        },
        {
          "internalType": "uint256",
          "name": "",
          "type": "uint256"
        }
      ],
      "stateMutability": "view",
      "type": "function",
      "constant": true
    },
    {
      "inputs": [
        {
          "internalType": "uint256",
          "name": "blocId",
          "type": "uint256"
        }
      ],
      "name": "getCollegeBloc",
      "outputs": [
        {
          "internalType": "uint256",
          "name": "",
          "type": "uint256"
        },
        {
          "internalType": "uint256",
          "name": "",
          "type": "uint256"
        }
      ],
      "stateMutability": "view",
      "type": "function",
      "constant": true
    }
  ],
  "bytecode": "0x608060405234801561001057600080fd5b50610e67806100206000396000f3fe608060405234801561001057600080fd5b50600436106100c95760003560e01c8063a3ec138d11610081578063e51cd4c01161005b578063e51cd4c014610192578063f019ec6d146101c5578063f293348b146101f357600080fd5b8063a3ec138d14610149578063b61f82331461016c578063cd8ae9671461017f57600080fd5b806388007872116100b257806388007872146101105780638be031f71461012357806392158e141461013657600080fd5b80633ad187ad146100ce5780634f5b75c5146100fb575b600080fd5b6100e16100dc366004610a08565b610206565b604080519283526020830191909152015b60405180910390f35b61010e610109366004610ac4565b610234565b005b6100e161011e366004610a08565b610418565b61010e610131366004610a08565b6104c0565b61010e610144366004610b14565b61059f565b61015c610157366004610b6c565b6106e7565b6040516100f29493929190610c05565b61010e61017a366004610a08565b610827565b6100e161018d366004610a08565b6108ff565b6101b56101a0366004610a08565b60026020526000908152604090205460ff1681565b60405190151581526020016100f2565b6101b56101d3366004610c45565b805160208183018101805160018252928201919093012091525460ff1681565b6100e1610201366004610a08565b61095f565b6004818154811061021657600080fd5b60009182526020909120600290910201805460019091015490915082565b3360009081526020819052604090205460ff16156102bf5760405162461bcd60e51b815260206004820152602260248201527f416c726561647920766f74656420666f7220756e697665727369747920626c6f60448201527f632e00000000000000000000000000000000000000000000000000000000000060648201526084015b60405180910390fd5b60008381526002602052604090205460ff161561031e5760405162461bcd60e51b815260206004820152601b60248201527f456d61696c20616c7265616479207573656420746f20766f74652e000000000060448201526064016102b6565b33600090815260208181526040909120805460ff191660019081178255845161034e93929091019185019061096f565b50600180836040516103609190610c82565b90815260408051918290036020908101909220805493151560ff19948516179055600086815260029092529020805490911660019081179091556003906103a79083610cb4565b815481106103b7576103b7610ccb565b6000918252602082206001600290920201018054916103d583610ce1565b91905055507f63e55e680c764f31db01f4a9c5b0b476bb0a9959145b2ec06bcfcccc9b096c52338360405161040b929190610cfa565b60405180910390a1505050565b60008060008311801561042d57506003548311155b6104695760405162461bcd60e51b815260206004820152600d60248201526c24b73b30b634b210313637b19760991b60448201526064016102b6565b60006003610478600186610cb4565b8154811061048857610488610ccb565b600091825260209182902060408051808201909152600290920201805480835260019091015491909201819052909590945092505050565b6040805180820182528281526000602080830182815260038054600181018255935292517fc2575a0e9e593c00f959f8c92f12db2869c3395a3b0502d05e2516446f71f85b60029093029283015591517fc2575a0e9e593c00f959f8c92f12db2869c3395a3b0502d05e2516446f71f85c9091015581518281526015928101929092527f556e697665727369747920426c6f632041646465640000000000000000000000606083015281018290527f75df0bfbb28e18e0445e5ff7cde3c58a1ec4582ecc0c3733d5a0e5eb9a725fe0906080015b60405180910390a150565b33600090815260208190526040902054610100900460ff16156106045760405162461bcd60e51b815260206004820152601f60248201527f416c726561647920766f74656420666f7220636f6c6c65676520626c6f632e0060448201526064016102b6565b33600090815260208181526040909120805461ff00191661010017815583516106359260029092019185019061096f565b50600180836040516106479190610c82565b908152604051908190036020019020805491151560ff199092169190911790556004610674600183610d67565b60ff168154811061068757610687610ccb565b6000918252602082206001600290920201018054916106a583610ce1565b91905055507f63e55e680c764f31db01f4a9c5b0b476bb0a9959145b2ec06bcfcccc9b096c5233836040516106db929190610d8a565b60405180910390a15050565b6000602081905290815260409020805460018201805460ff808416946101009094041692919061071690610df7565b80601f016020809104026020016040519081016040528092919081815260200182805461074290610df7565b801561078f5780601f106107645761010080835404028352916020019161078f565b820191906000526020600020905b81548152906001019060200180831161077257829003601f168201915b5050505050908060020180546107a490610df7565b80601f01602080910402602001604051908101604052809291908181526020018280546107d090610df7565b801561081d5780601f106107f25761010080835404028352916020019161081d565b820191906000526020600020905b81548152906001019060200180831161080057829003601f168201915b5050505050905084565b6040805180820182528281526000602080830182815260048054600181018255935292517f8a35acfbc15ff81a39ae7d344fd709f28e8600b4aa8c65c6b64bfe7fe36bd19b60029093029283015591517f8a35acfbc15ff81a39ae7d344fd709f28e8600b4aa8c65c6b64bfe7fe36bd19c9091015581518281526012928101929092527f436f6c6c65676520426c6f632041646465640000000000000000000000000000606083015281018290527f3f08ca211d6a39d425d44570ae45d9ee687d7ff3c1667d14695f79bd209e9a4690608001610594565b60008060008311801561091457506004548311155b6109505760405162461bcd60e51b815260206004820152600d60248201526c24b73b30b634b210313637b19760991b60448201526064016102b6565b60006004610478600186610cb4565b6003818154811061021657600080fd5b82805461097b90610df7565b90600052602060002090601f01602090048101928261099d57600085556109e3565b82601f106109b657805160ff19168380011785556109e3565b828001600101855582156109e3579182015b828111156109e35782518255916020019190600101906109c8565b506109ef9291506109f3565b5090565b5b808211156109ef57600081556001016109f4565b600060208284031215610a1a57600080fd5b5035919050565b634e487b7160e01b600052604160045260246000fd5b600082601f830112610a4857600080fd5b813567ffffffffffffffff80821115610a6357610a63610a21565b604051601f8301601f19908116603f01168101908282118183101715610a8b57610a8b610a21565b81604052838152866020858801011115610aa457600080fd5b836020870160208301376000602085830101528094505050505092915050565b600080600060608486031215610ad957600080fd5b83359250602084013567ffffffffffffffff811115610af757600080fd5b610b0386828701610a37565b925050604084013590509250925092565b60008060408385031215610b2757600080fd5b823567ffffffffffffffff811115610b3e57600080fd5b610b4a85828601610a37565b925050602083013560ff81168114610b6157600080fd5b809150509250929050565b600060208284031215610b7e57600080fd5b813573ffffffffffffffffffffffffffffffffffffffff81168114610ba257600080fd5b9392505050565b60005b83811015610bc4578181015183820152602001610bac565b83811115610bd3576000848401525b50505050565b60008151808452610bf1816020860160208601610ba9565b601f01601f19169290920160200192915050565b84151581528315156020820152608060408201526000610c286080830185610bd9565b8281036060840152610c3a8185610bd9565b979650505050505050565b600060208284031215610c5757600080fd5b813567ffffffffffffffff811115610c6e57600080fd5b610c7a84828501610a37565b949350505050565b60008251610c94818460208701610ba9565b9190910192915050565b634e487b7160e01b600052601160045260246000fd5b600082821015610cc657610cc6610c9e565b500390565b634e487b7160e01b600052603260045260246000fd5b600060018201610cf357610cf3610c9e565b5060010190565b73ffffffffffffffffffffffffffffffffffffffff83168152606060208201526000610d296060830184610bd9565b828103604093840152600a81527f756e6976657273697479000000000000000000000000000000000000000000006020820152919091019392505050565b600060ff821660ff841680821015610d8157610d81610c9e565b90039392505050565b73ffffffffffffffffffffffffffffffffffffffff83168152606060208201526000610db96060830184610bd9565b828103604093840152600781527f636f6c6c656765000000000000000000000000000000000000000000000000006020820152919091019392505050565b600181811c90821680610e0b57607f821691505b602082108103610e2b57634e487b7160e01b600052602260045260246000fd5b5091905056fea2646970667358221220bad98f6c2e9ac5d7c18d649d3de2317e387523066c36d9b66c76002d14f0f06e64736f6c634300080d0033",
  "immutableReferences": {},
  "source": "// SPDX-License-Identifier: MIT\r\npragma solidity ^0.8.13;\r\n\r\ncontract VotingSystem {\r\n\r\n    struct Voter {\r\n        bool hasVotedUniversity;\r\n        bool hasVotedCollege;\r\n        string universityVoteHash;\r\n        string collegeVoteHash;\r\n    }\r\n\r\n    struct UniversityBloc {\r\n        uint256 id;\r\n        uint256 voteCount;\r\n    }\r\n\r\n    struct CollegeBloc {\r\n        uint256 id;\r\n        uint256 voteCount;\r\n    }\r\n\r\n    // ---------------------------\r\n    //  State Variables\r\n    // ---------------------------\r\n\r\n    mapping(address => Voter) public voters;\r\n    mapping(string => bool) public voteHashes;\r\n    mapping(bytes32 => bool) public emailHasVoted; //  Email-based double-voting protection\r\n\r\n    UniversityBloc[] public universityBlocs;\r\n    CollegeBloc[] public collegeBlocs;\r\n\r\n    // ---------------------------\r\n    //  Events\r\n    // ---------------------------\r\n\r\n    event UniversityBlocAdded(string message, uint256 blocId);\r\n    event CollegeBlocAdded(string message, uint256 blocId);\r\n    event VoteCast(address voter, string voteHash, string voteType); // \"university\" or \"college\"\r\n\r\n    // ---------------------------\r\n    //  Bloc Management Functions\r\n    // ---------------------------\r\n\r\n    function addUniversityBloc(uint256 blocId) public {\r\n        universityBlocs.push(UniversityBloc(blocId, 0));\r\n        emit UniversityBlocAdded(\"University Bloc Added\", blocId);\r\n    }\r\n\r\n    function addCollegeBloc(uint256 blocId) public {\r\n        collegeBlocs.push(CollegeBloc(blocId, 0));\r\n        emit CollegeBlocAdded(\"College Bloc Added\", blocId);\r\n    }\r\n\r\n    // ---------------------------\r\n    //  Voting Functions\r\n    // ---------------------------\r\n\r\n    function vote(bytes32 emailHash, string memory voteHash, uint256 blocId) public {\r\n        require(!voters[msg.sender].hasVotedUniversity, \"Already voted for university bloc.\");\r\n        require(!emailHasVoted[emailHash], \"Email already used to vote.\");\r\n\r\n        voters[msg.sender].hasVotedUniversity = true;\r\n        voters[msg.sender].universityVoteHash = voteHash;\r\n        voteHashes[voteHash] = true;\r\n        emailHasVoted[emailHash] = true;\r\n\r\n        universityBlocs[blocId - 1].voteCount++;\r\n\r\n        emit VoteCast(msg.sender, voteHash, \"university\");\r\n    }\r\n\r\n    function voteCollegeBloc(string memory voteHash, uint8 blocId) public {\r\n        require(!voters[msg.sender].hasVotedCollege, \"Already voted for college bloc.\");\r\n\r\n        voters[msg.sender].hasVotedCollege = true;\r\n        voters[msg.sender].collegeVoteHash = voteHash;\r\n        voteHashes[voteHash] = true;\r\n\r\n        collegeBlocs[blocId - 1].voteCount++;\r\n\r\n        emit VoteCast(msg.sender, voteHash, \"college\");\r\n    }\r\n\r\n    // ---------------------------\r\n    //  Read Functions\r\n    // ---------------------------\r\n\r\n    function getUniversityBloc(uint256 blocId) public view returns (uint256, uint256) {\r\n        require(blocId > 0 && blocId <= universityBlocs.length, \"Invalid bloc.\");\r\n        UniversityBloc memory bloc = universityBlocs[blocId - 1];\r\n        return (bloc.id, bloc.voteCount);\r\n    }\r\n\r\n    function getCollegeBloc(uint256 blocId) public view returns (uint256, uint256) {\r\n        require(blocId > 0 && blocId <= collegeBlocs.length, \"Invalid bloc.\");\r\n        CollegeBloc memory bloc = collegeBlocs[blocId - 1];\r\n        return (bloc.id, bloc.voteCount);\r\n    }\r\n}",
  "sourcePath": "C:\\Users\\omard\\Desktop\\final working\\2-4-2025\\2-4-2025\\OLD 16_3_2023 2\\OLD 16_3_2023 1\\OLD 16_3_2023\\OLD 15_3_2023\\blockchain\\contracts\\VotingSystem.sol",
  "compiler": {
    "name": "solc",
    "version": "0.8.13+commit.abaa5c0e.Emscripten.clang"
  },
  "schemaVersion": "3.4.16",
  "updatedAt": "2025-07-10T08:14:40.678Z",
  "networkType": "ethereum",
  "devdoc": {
    "kind": "dev",
    "methods": {},
    "version": 1
  },
  "userdoc": {
    "kind": "user",
    "methods": {},
    "version": 1
  }
}